{
  "_format": "hh-sol-artifact-1",
  "contractName": "ProfileNFT",
  "sourceName": "contracts/ProfileNFT.sol",
  "abi": [
    {
      "inputs": [],
      "stateMutability": "nonpayable",
      "type": "constructor"
    },
    {
      "inputs": [
        {
          "internalType": "address",
          "name": "sender",
          "type": "address"
        },
        {
          "internalType": "uint256",
          "name": "tokenId",
          "type": "uint256"
        },
        {
          "internalType": "address",
          "name": "owner",
          "type": "address"
        }
      ],
      "name": "ERC721IncorrectOwner",
      "type": "error"
    },
    {
      "inputs": [
        {
          "internalType": "address",
          "name": "operator",
          "type": "address"
        },
        {
          "internalType": "uint256",
          "name": "tokenId",
          "type": "uint256"
        }
      ],
      "name": "ERC721InsufficientApproval",
      "type": "error"
    },
    {
      "inputs": [
        {
          "internalType": "address",
          "name": "approver",
          "type": "address"
        }
      ],
      "name": "ERC721InvalidApprover",
      "type": "error"
    },
    {
      "inputs": [
        {
          "internalType": "address",
          "name": "operator",
          "type": "address"
        }
      ],
      "name": "ERC721InvalidOperator",
      "type": "error"
    },
    {
      "inputs": [
        {
          "internalType": "address",
          "name": "owner",
          "type": "address"
        }
      ],
      "name": "ERC721InvalidOwner",
      "type": "error"
    },
    {
      "inputs": [
        {
          "internalType": "address",
          "name": "receiver",
          "type": "address"
        }
      ],
      "name": "ERC721InvalidReceiver",
      "type": "error"
    },
    {
      "inputs": [
        {
          "internalType": "address",
          "name": "sender",
          "type": "address"
        }
      ],
      "name": "ERC721InvalidSender",
      "type": "error"
    },
    {
      "inputs": [
        {
          "internalType": "uint256",
          "name": "tokenId",
          "type": "uint256"
        }
      ],
      "name": "ERC721NonexistentToken",
      "type": "error"
    },
    {
      "inputs": [
        {
          "internalType": "address",
          "name": "owner",
          "type": "address"
        }
      ],
      "name": "OwnableInvalidOwner",
      "type": "error"
    },
    {
      "inputs": [
        {
          "internalType": "address",
          "name": "account",
          "type": "address"
        }
      ],
      "name": "OwnableUnauthorizedAccount",
      "type": "error"
    },
    {
      "anonymous": false,
      "inputs": [
        {
          "indexed": true,
          "internalType": "address",
          "name": "owner",
          "type": "address"
        },
        {
          "indexed": true,
          "internalType": "address",
          "name": "approved",
          "type": "address"
        },
        {
          "indexed": true,
          "internalType": "uint256",
          "name": "tokenId",
          "type": "uint256"
        }
      ],
      "name": "Approval",
      "type": "event"
    },
    {
      "anonymous": false,
      "inputs": [
        {
          "indexed": true,
          "internalType": "address",
          "name": "owner",
          "type": "address"
        },
        {
          "indexed": true,
          "internalType": "address",
          "name": "operator",
          "type": "address"
        },
        {
          "indexed": false,
          "internalType": "bool",
          "name": "approved",
          "type": "bool"
        }
      ],
      "name": "ApprovalForAll",
      "type": "event"
    },
    {
      "anonymous": false,
      "inputs": [
        {
          "indexed": false,
          "internalType": "uint256",
          "name": "_fromTokenId",
          "type": "uint256"
        },
        {
          "indexed": false,
          "internalType": "uint256",
          "name": "_toTokenId",
          "type": "uint256"
        }
      ],
      "name": "BatchMetadataUpdate",
      "type": "event"
    },
    {
      "anonymous": false,
      "inputs": [
        {
          "indexed": false,
          "internalType": "uint256",
          "name": "_tokenId",
          "type": "uint256"
        }
      ],
      "name": "MetadataUpdate",
      "type": "event"
    },
    {
      "anonymous": false,
      "inputs": [
        {
          "indexed": true,
          "internalType": "address",
          "name": "previousOwner",
          "type": "address"
        },
        {
          "indexed": true,
          "internalType": "address",
          "name": "newOwner",
          "type": "address"
        }
      ],
      "name": "OwnershipTransferred",
      "type": "event"
    },
    {
      "anonymous": false,
      "inputs": [
        {
          "indexed": true,
          "internalType": "uint256",
          "name": "tokenId",
          "type": "uint256"
        }
      ],
      "name": "ProfileBurned",
      "type": "event"
    },
    {
      "anonymous": false,
      "inputs": [
        {
          "indexed": true,
          "internalType": "uint256",
          "name": "tokenId",
          "type": "uint256"
        },
        {
          "indexed": false,
          "internalType": "string",
          "name": "veridaURI",
          "type": "string"
        }
      ],
      "name": "ProfileCreated",
      "type": "event"
    },
    {
      "anonymous": false,
      "inputs": [
        {
          "indexed": true,
          "internalType": "uint256",
          "name": "tokenId",
          "type": "uint256"
        },
        {
          "indexed": false,
          "internalType": "string",
          "name": "veridaURI",
          "type": "string"
        }
      ],
      "name": "ProfileUpdated",
      "type": "event"
    },
    {
      "anonymous": false,
      "inputs": [
        {
          "indexed": true,
          "internalType": "address",
          "name": "from",
          "type": "address"
        },
        {
          "indexed": true,
          "internalType": "address",
          "name": "to",
          "type": "address"
        },
        {
          "indexed": true,
          "internalType": "uint256",
          "name": "tokenId",
          "type": "uint256"
        }
      ],
      "name": "Transfer",
      "type": "event"
    },
    {
      "inputs": [
        {
          "internalType": "address",
          "name": "",
          "type": "address"
        }
      ],
      "name": "UserProfileId",
      "outputs": [
        {
          "internalType": "uint256",
          "name": "",
          "type": "uint256"
        }
      ],
      "stateMutability": "view",
      "type": "function"
    },
    {
      "inputs": [
        {
          "internalType": "address",
          "name": "",
          "type": "address"
        },
        {
          "internalType": "uint256",
          "name": "",
          "type": "uint256"
        }
      ],
      "name": "approve",
      "outputs": [],
      "stateMutability": "nonpayable",
      "type": "function"
    },
    {
      "inputs": [
        {
          "internalType": "address",
          "name": "owner",
          "type": "address"
        }
      ],
      "name": "balanceOf",
      "outputs": [
        {
          "internalType": "uint256",
          "name": "",
          "type": "uint256"
        }
      ],
      "stateMutability": "view",
      "type": "function"
    },
    {
      "inputs": [
        {
          "internalType": "uint256",
          "name": "tokenId",
          "type": "uint256"
        }
      ],
      "name": "burnProfile",
      "outputs": [],
      "stateMutability": "nonpayable",
      "type": "function"
    },
    {
      "inputs": [
        {
          "internalType": "string",
          "name": "tokenURI_",
          "type": "string"
        }
      ],
      "name": "createProfile",
      "outputs": [
        {
          "internalType": "uint256",
          "name": "",
          "type": "uint256"
        }
      ],
      "stateMutability": "nonpayable",
      "type": "function"
    },
    {
      "inputs": [
        {
          "internalType": "uint256",
          "name": "tokenId",
          "type": "uint256"
        }
      ],
      "name": "getApproved",
      "outputs": [
        {
          "internalType": "address",
          "name": "",
          "type": "address"
        }
      ],
      "stateMutability": "view",
      "type": "function"
    },
    {
      "inputs": [
        {
          "internalType": "address",
          "name": "",
          "type": "address"
        }
      ],
      "name": "hasProfile",
      "outputs": [
        {
          "internalType": "bool",
          "name": "",
          "type": "bool"
        }
      ],
      "stateMutability": "view",
      "type": "function"
    },
    {
      "inputs": [
        {
          "internalType": "address",
          "name": "owner",
          "type": "address"
        },
        {
          "internalType": "address",
          "name": "operator",
          "type": "address"
        }
      ],
      "name": "isApprovedForAll",
      "outputs": [
        {
          "internalType": "bool",
          "name": "",
          "type": "bool"
        }
      ],
      "stateMutability": "view",
      "type": "function"
    },
    {
      "inputs": [],
      "name": "name",
      "outputs": [
        {
          "internalType": "string",
          "name": "",
          "type": "string"
        }
      ],
      "stateMutability": "view",
      "type": "function"
    },
    {
      "inputs": [],
      "name": "owner",
      "outputs": [
        {
          "internalType": "address",
          "name": "",
          "type": "address"
        }
      ],
      "stateMutability": "view",
      "type": "function"
    },
    {
      "inputs": [
        {
          "internalType": "uint256",
          "name": "tokenId",
          "type": "uint256"
        }
      ],
      "name": "ownerOf",
      "outputs": [
        {
          "internalType": "address",
          "name": "",
          "type": "address"
        }
      ],
      "stateMutability": "view",
      "type": "function"
    },
    {
      "inputs": [],
      "name": "renounceOwnership",
      "outputs": [],
      "stateMutability": "nonpayable",
      "type": "function"
    },
    {
      "inputs": [
        {
          "internalType": "address",
          "name": "from",
          "type": "address"
        },
        {
          "internalType": "address",
          "name": "to",
          "type": "address"
        },
        {
          "internalType": "uint256",
          "name": "tokenId",
          "type": "uint256"
        }
      ],
      "name": "safeTransferFrom",
      "outputs": [],
      "stateMutability": "nonpayable",
      "type": "function"
    },
    {
      "inputs": [
        {
          "internalType": "address",
          "name": "from",
          "type": "address"
        },
        {
          "internalType": "address",
          "name": "to",
          "type": "address"
        },
        {
          "internalType": "uint256",
          "name": "tokenId",
          "type": "uint256"
        },
        {
          "internalType": "bytes",
          "name": "data",
          "type": "bytes"
        }
      ],
      "name": "safeTransferFrom",
      "outputs": [],
      "stateMutability": "nonpayable",
      "type": "function"
    },
    {
      "inputs": [
        {
          "internalType": "address",
          "name": "",
          "type": "address"
        },
        {
          "internalType": "bool",
          "name": "",
          "type": "bool"
        }
      ],
      "name": "setApprovalForAll",
      "outputs": [],
      "stateMutability": "nonpayable",
      "type": "function"
    },
    {
      "inputs": [
        {
          "internalType": "bytes4",
          "name": "interfaceId",
          "type": "bytes4"
        }
      ],
      "name": "supportsInterface",
      "outputs": [
        {
          "internalType": "bool",
          "name": "",
          "type": "bool"
        }
      ],
      "stateMutability": "view",
      "type": "function"
    },
    {
      "inputs": [],
      "name": "symbol",
      "outputs": [
        {
          "internalType": "string",
          "name": "",
          "type": "string"
        }
      ],
      "stateMutability": "view",
      "type": "function"
    },
    {
      "inputs": [
        {
          "internalType": "uint256",
          "name": "tokenId",
          "type": "uint256"
        }
      ],
      "name": "tokenURI",
      "outputs": [
        {
          "internalType": "string",
          "name": "",
          "type": "string"
        }
      ],
      "stateMutability": "view",
      "type": "function"
    },
    {
      "inputs": [
        {
          "internalType": "address",
          "name": "",
          "type": "address"
        },
        {
          "internalType": "address",
          "name": "",
          "type": "address"
        },
        {
          "internalType": "uint256",
          "name": "",
          "type": "uint256"
        }
      ],
      "name": "transferFrom",
      "outputs": [],
      "stateMutability": "nonpayable",
      "type": "function"
    },
    {
      "inputs": [
        {
          "internalType": "address",
          "name": "newOwner",
          "type": "address"
        }
      ],
      "name": "transferOwnership",
      "outputs": [],
      "stateMutability": "nonpayable",
      "type": "function"
    },
    {
      "inputs": [
        {
          "internalType": "uint256",
          "name": "tokenId",
          "type": "uint256"
        },
        {
          "internalType": "string",
          "name": "newTokenURI",
          "type": "string"
        }
      ],
      "name": "updateProfile",
      "outputs": [],
      "stateMutability": "nonpayable",
      "type": "function"
    }
  ],
  "bytecode": "0x6080604052600160085534801561001557600080fd5b50336040518060400160405280600d81526020017f446174696e6750726f66696c65000000000000000000000000000000000000008152506040518060400160405280600481526020017f4450524f0000000000000000000000000000000000000000000000000000000081525081600090816100929190610442565b5080600190816100a29190610442565b505050600073ffffffffffffffffffffffffffffffffffffffff168173ffffffffffffffffffffffffffffffffffffffff16036101175760006040517f1e4fbdf700000000000000000000000000000000000000000000000000000000815260040161010e9190610555565b60405180910390fd5b6101268161012c60201b60201c565b50610570565b6000600760009054906101000a900473ffffffffffffffffffffffffffffffffffffffff16905081600760006101000a81548173ffffffffffffffffffffffffffffffffffffffff021916908373ffffffffffffffffffffffffffffffffffffffff1602179055508173ffffffffffffffffffffffffffffffffffffffff168173ffffffffffffffffffffffffffffffffffffffff167f8be0079c531659141344cd1fd0a4f28419497f9722a3daafe3b4186f6b6457e060405160405180910390a35050565b600081519050919050565b7f4e487b7100000000000000000000000000000000000000000000000000000000600052604160045260246000fd5b7f4e487b7100000000000000000000000000000000000000000000000000000000600052602260045260246000fd5b6000600282049050600182168061027357607f821691505b6020821081036102865761028561022c565b5b50919050565b60008190508160005260206000209050919050565b60006020601f8301049050919050565b600082821b905092915050565b6000600883026102ee7fffffffffffffffffffffffffffffffffffffffffffffffffffffffffffffffff826102b1565b6102f886836102b1565b95508019841693508086168417925050509392505050565b6000819050919050565b6000819050919050565b600061033f61033a61033584610310565b61031a565b610310565b9050919050565b6000819050919050565b61035983610324565b61036d61036582610346565b8484546102be565b825550505050565b600090565b610382610375565b61038d818484610350565b505050565b5b818110156103b1576103a660008261037a565b600181019050610393565b5050565b601f8211156103f6576103c78161028c565b6103d0846102a1565b810160208510156103df578190505b6103f36103eb856102a1565b830182610392565b50505b505050565b600082821c905092915050565b6000610419600019846008026103fb565b1980831691505092915050565b60006104328383610408565b9150826002028217905092915050565b61044b826101f2565b67ffffffffffffffff811115610464576104636101fd565b5b61046e825461025b565b6104798282856103b5565b600060209050601f8311600181146104ac576000841561049a578287015190505b6104a48582610426565b86555061050c565b601f1984166104ba8661028c565b60005b828110156104e2578489015182556001820191506020850194506020810190506104bd565b868310156104ff57848901516104fb601f891682610408565b8355505b6001600288020188555050505b505050505050565b600073ffffffffffffffffffffffffffffffffffffffff82169050919050565b600061053f82610514565b9050919050565b61054f81610534565b82525050565b600060208201905061056a6000830184610546565b92915050565b612b5f8061057f6000396000f3fe608060405234801561001057600080fd5b50600436106101375760003560e01c806370a08231116100b8578063a22cb4651161007c578063a22cb4651461034c578063a787c80b14610368578063b88d4fde14610398578063c87b56dd146103b4578063e985e9c5146103e4578063f2fde38b1461041457610137565b806370a08231146102ba578063715018a6146102ea57806389c7e0a0146102f45780638da5cb5b1461031057806395d89b411461032e57610137565b80633283cbc4116100ff5780633283cbc4146101f2578063334c3f0e1461020e57806342842e0e1461023e57806362e647b31461025a5780636352211e1461028a57610137565b806301ffc9a71461013c57806306fdde031461016c578063081812fc1461018a578063095ea7b3146101ba57806323b872dd146101d6575b600080fd5b61015660048036038101906101519190611e49565b610430565b6040516101639190611e91565b60405180910390f35b610174610491565b6040516101819190611f3c565b60405180910390f35b6101a4600480360381019061019f9190611f94565b610523565b6040516101b19190612002565b60405180910390f35b6101d460048036038101906101cf9190612049565b61053f565b005b6101f060048036038101906101eb9190612089565b61057a565b005b61020c60048036038101906102079190611f94565b6105b5565b005b61022860048036038101906102239190612141565b610701565b604051610235919061219d565b60405180910390f35b61025860048036038101906102539190612089565b6108e3565b005b610274600480360381019061026f91906121b8565b610903565b604051610281919061219d565b60405180910390f35b6102a4600480360381019061029f9190611f94565b61091b565b6040516102b19190612002565b60405180910390f35b6102d460048036038101906102cf91906121b8565b61092d565b6040516102e1919061219d565b60405180910390f35b6102f26109e7565b005b61030e600480360381019061030991906121e5565b6109fb565b005b610318610afe565b6040516103259190612002565b60405180910390f35b610336610b28565b6040516103439190611f3c565b60405180910390f35b61036660048036038101906103619190612271565b610bba565b005b610382600480360381019061037d91906121b8565b610bf5565b60405161038f9190611e91565b60405180910390f35b6103b260048036038101906103ad91906123e1565b610c15565b005b6103ce60048036038101906103c99190611f94565b610c3a565b6040516103db9190611f3c565b60405180910390f35b6103fe60048036038101906103f99190612464565b610d4d565b60405161040b9190611e91565b60405180910390f35b61042e600480360381019061042991906121b8565b610de1565b005b6000634906490660e01b7bffffffffffffffffffffffffffffffffffffffffffffffffffffffff1916827bffffffffffffffffffffffffffffffffffffffffffffffffffffffff1916148061048a575061048982610e67565b5b9050919050565b6060600080546104a0906124d3565b80601f01602080910402602001604051908101604052809291908181526020018280546104cc906124d3565b80156105195780601f106104ee57610100808354040283529160200191610519565b820191906000526020600020905b8154815290600101906020018083116104fc57829003601f168201915b5050505050905090565b600061052e82610f49565b5061053882610fd1565b9050919050565b6040517f08c379a000000000000000000000000000000000000000000000000000000000815260040161057190612550565b60405180910390fd5b6040517f08c379a00000000000000000000000000000000000000000000000000000000081526004016105ac90612550565b60405180910390fd5b3373ffffffffffffffffffffffffffffffffffffffff166105d58261091b565b73ffffffffffffffffffffffffffffffffffffffff161461062b576040517f08c379a0000000000000000000000000000000000000000000000000000000008152600401610622906125bc565b60405180910390fd5b6106348161100e565b6000600960003373ffffffffffffffffffffffffffffffffffffffff1673ffffffffffffffffffffffffffffffffffffffff16815260200190815260200160002060006101000a81548160ff0219169083151502179055506000600a60003373ffffffffffffffffffffffffffffffffffffffff1673ffffffffffffffffffffffffffffffffffffffff16815260200190815260200160002081905550807f6568d631b6055f5fedacd7f6ec702e7567c746a6a74fa1529372ada3e90ddfc960405160405180910390a250565b6000600960003373ffffffffffffffffffffffffffffffffffffffff1673ffffffffffffffffffffffffffffffffffffffff16815260200190815260200160002060009054906101000a900460ff1615610790576040517f08c379a000000000000000000000000000000000000000000000000000000000815260040161078790612628565b60405180910390fd5b6000600860008154809291906107a590612677565b9190505590506001600960003373ffffffffffffffffffffffffffffffffffffffff1673ffffffffffffffffffffffffffffffffffffffff16815260200190815260200160002060006101000a81548160ff02191690831515021790555080600a60003373ffffffffffffffffffffffffffffffffffffffff1673ffffffffffffffffffffffffffffffffffffffff168152602001908152602001600020819055506108513382611094565b61089f8185858080601f016020809104026020016040519081016040528093929190818152602001838380828437600081840152601f19601f820116905080830192505050505050506110b2565b807f1a3d00a0b23e8b0a50d37b51a6074636696b760694938d177fcbdebb1838742e85856040516108d19291906126ec565b60405180910390a28091505092915050565b6108fe83838360405180602001604052806000815250610c15565b505050565b600a6020528060005260406000206000915090505481565b600061092682610f49565b9050919050565b60008073ffffffffffffffffffffffffffffffffffffffff168273ffffffffffffffffffffffffffffffffffffffff16036109a05760006040517f89c62b640000000000000000000000000000000000000000000000000000000081526004016109979190612002565b60405180910390fd5b600360008373ffffffffffffffffffffffffffffffffffffffff1673ffffffffffffffffffffffffffffffffffffffff168152602001908152602001600020549050919050565b6109ef61110e565b6109f96000611195565b565b3373ffffffffffffffffffffffffffffffffffffffff16610a1b8461091b565b73ffffffffffffffffffffffffffffffffffffffff1614610a71576040517f08c379a0000000000000000000000000000000000000000000000000000000008152600401610a68906125bc565b60405180910390fd5b610abf8383838080601f016020809104026020016040519081016040528093929190818152602001838380828437600081840152601f19601f820116905080830192505050505050506110b2565b827ff96ba9de8f35fc1b2f70be308b08d6f4474871473f0e193bd910b20f565ff0b18383604051610af19291906126ec565b60405180910390a2505050565b6000600760009054906101000a900473ffffffffffffffffffffffffffffffffffffffff16905090565b606060018054610b37906124d3565b80601f0160208091040260200160405190810160405280929190818152602001828054610b63906124d3565b8015610bb05780601f10610b8557610100808354040283529160200191610bb0565b820191906000526020600020905b815481529060010190602001808311610b9357829003601f168201915b5050505050905090565b6040517f08c379a0000000000000000000000000000000000000000000000000000000008152600401610bec90612550565b60405180910390fd5b60096020528060005260406000206000915054906101000a900460ff1681565b610c2084848461057a565b610c34610c2b61125b565b85858585611263565b50505050565b6060610c4582610f49565b506000600660008481526020019081526020016000208054610c66906124d3565b80601f0160208091040260200160405190810160405280929190818152602001828054610c92906124d3565b8015610cdf5780601f10610cb457610100808354040283529160200191610cdf565b820191906000526020600020905b815481529060010190602001808311610cc257829003601f168201915b505050505090506000610cf0611414565b90506000815103610d05578192505050610d48565b600082511115610d3a578082604051602001610d2292919061274c565b60405160208183030381529060405292505050610d48565b610d438461142b565b925050505b919050565b6000600560008473ffffffffffffffffffffffffffffffffffffffff1673ffffffffffffffffffffffffffffffffffffffff16815260200190815260200160002060008373ffffffffffffffffffffffffffffffffffffffff1673ffffffffffffffffffffffffffffffffffffffff16815260200190815260200160002060009054906101000a900460ff16905092915050565b610de961110e565b600073ffffffffffffffffffffffffffffffffffffffff168173ffffffffffffffffffffffffffffffffffffffff1603610e5b5760006040517f1e4fbdf7000000000000000000000000000000000000000000000000000000008152600401610e529190612002565b60405180910390fd5b610e6481611195565b50565b60007f80ac58cd000000000000000000000000000000000000000000000000000000007bffffffffffffffffffffffffffffffffffffffffffffffffffffffff1916827bffffffffffffffffffffffffffffffffffffffffffffffffffffffff19161480610f3257507f5b5e139f000000000000000000000000000000000000000000000000000000007bffffffffffffffffffffffffffffffffffffffffffffffffffffffff1916827bffffffffffffffffffffffffffffffffffffffffffffffffffffffff1916145b80610f425750610f4182611494565b5b9050919050565b600080610f55836114fe565b9050600073ffffffffffffffffffffffffffffffffffffffff168173ffffffffffffffffffffffffffffffffffffffff1603610fc857826040517f7e273289000000000000000000000000000000000000000000000000000000008152600401610fbf919061219d565b60405180910390fd5b80915050919050565b60006004600083815260200190815260200160002060009054906101000a900473ffffffffffffffffffffffffffffffffffffffff169050919050565b600061101d600083600061153b565b9050600073ffffffffffffffffffffffffffffffffffffffff168173ffffffffffffffffffffffffffffffffffffffff160361109057816040517f7e273289000000000000000000000000000000000000000000000000000000008152600401611087919061219d565b60405180910390fd5b5050565b6110ae828260405180602001604052806000815250611755565b5050565b806006600084815260200190815260200160002090816110d2919061291c565b507ff8e1a15aba9398e019f0b49df1a4fde98ee17ae345cb5f6b5e2c27f5033e8ce782604051611102919061219d565b60405180910390a15050565b61111661125b565b73ffffffffffffffffffffffffffffffffffffffff16611134610afe565b73ffffffffffffffffffffffffffffffffffffffff16146111935761115761125b565b6040517f118cdaa700000000000000000000000000000000000000000000000000000000815260040161118a9190612002565b60405180910390fd5b565b6000600760009054906101000a900473ffffffffffffffffffffffffffffffffffffffff16905081600760006101000a81548173ffffffffffffffffffffffffffffffffffffffff021916908373ffffffffffffffffffffffffffffffffffffffff1602179055508173ffffffffffffffffffffffffffffffffffffffff168173ffffffffffffffffffffffffffffffffffffffff167f8be0079c531659141344cd1fd0a4f28419497f9722a3daafe3b4186f6b6457e060405160405180910390a35050565b600033905090565b60008373ffffffffffffffffffffffffffffffffffffffff163b111561140d578273ffffffffffffffffffffffffffffffffffffffff1663150b7a02868685856040518563ffffffff1660e01b81526004016112c29493929190612a43565b6020604051808303816000875af19250505080156112fe57506040513d601f19601f820116820180604052508101906112fb9190612aa4565b60015b611382573d806000811461132e576040519150601f19603f3d011682016040523d82523d6000602084013e611333565b606091505b50600081510361137a57836040517f64a0ae920000000000000000000000000000000000000000000000000000000081526004016113719190612002565b60405180910390fd5b805181602001fd5b63150b7a0260e01b7bffffffffffffffffffffffffffffffffffffffffffffffffffffffff1916817bffffffffffffffffffffffffffffffffffffffffffffffffffffffff19161461140b57836040517f64a0ae920000000000000000000000000000000000000000000000000000000081526004016114029190612002565b60405180910390fd5b505b5050505050565b606060405180602001604052806000815250905090565b606061143682610f49565b506000611441611414565b90506000815111611461576040518060200160405280600081525061148c565b8061146b84611779565b60405160200161147c92919061274c565b6040516020818303038152906040525b915050919050565b60007f01ffc9a7000000000000000000000000000000000000000000000000000000007bffffffffffffffffffffffffffffffffffffffffffffffffffffffff1916827bffffffffffffffffffffffffffffffffffffffffffffffffffffffff1916149050919050565b60006002600083815260200190815260200160002060009054906101000a900473ffffffffffffffffffffffffffffffffffffffff169050919050565b600080611547846114fe565b9050600073ffffffffffffffffffffffffffffffffffffffff168373ffffffffffffffffffffffffffffffffffffffff161461158957611588818486611847565b5b600073ffffffffffffffffffffffffffffffffffffffff168173ffffffffffffffffffffffffffffffffffffffff161461161a576115cb60008560008061190b565b6001600360008373ffffffffffffffffffffffffffffffffffffffff1673ffffffffffffffffffffffffffffffffffffffff168152602001908152602001600020600082825403925050819055505b600073ffffffffffffffffffffffffffffffffffffffff168573ffffffffffffffffffffffffffffffffffffffff161461169d576001600360008773ffffffffffffffffffffffffffffffffffffffff1673ffffffffffffffffffffffffffffffffffffffff168152602001908152602001600020600082825401925050819055505b846002600086815260200190815260200160002060006101000a81548173ffffffffffffffffffffffffffffffffffffffff021916908373ffffffffffffffffffffffffffffffffffffffff160217905550838573ffffffffffffffffffffffffffffffffffffffff168273ffffffffffffffffffffffffffffffffffffffff167fddf252ad1be2c89b69c2b068fc378daa952ba7f163c4a11628f55a4df523b3ef60405160405180910390a4809150509392505050565b61175f8383611ad0565b61177461176a61125b565b6000858585611263565b505050565b60606000600161178884611bc9565b01905060008167ffffffffffffffff8111156117a7576117a66122b6565b5b6040519080825280601f01601f1916602001820160405280156117d95781602001600182028036833780820191505090505b509050600082602001820190505b60011561183c578080600190039150507f3031323334353637383961626364656600000000000000000000000000000000600a86061a8153600a85816118305761182f612ad1565b5b049450600085036117e7575b819350505050919050565b611852838383611d1c565b61190657600073ffffffffffffffffffffffffffffffffffffffff168373ffffffffffffffffffffffffffffffffffffffff16036118c757806040517f7e2732890000000000000000000000000000000000000000000000000000000081526004016118be919061219d565b60405180910390fd5b81816040517f177e802f0000000000000000000000000000000000000000000000000000000081526004016118fd929190612b00565b60405180910390fd5b505050565b80806119445750600073ffffffffffffffffffffffffffffffffffffffff168273ffffffffffffffffffffffffffffffffffffffff1614155b15611a7857600061195484610f49565b9050600073ffffffffffffffffffffffffffffffffffffffff168373ffffffffffffffffffffffffffffffffffffffff16141580156119bf57508273ffffffffffffffffffffffffffffffffffffffff168173ffffffffffffffffffffffffffffffffffffffff1614155b80156119d257506119d08184610d4d565b155b15611a1457826040517fa9fbf51f000000000000000000000000000000000000000000000000000000008152600401611a0b9190612002565b60405180910390fd5b8115611a7657838573ffffffffffffffffffffffffffffffffffffffff168273ffffffffffffffffffffffffffffffffffffffff167f8c5be1e5ebec7d5bd14f71427d1e84f3dd0314c0f7b2291e5b200ac8c7c3b92560405160405180910390a45b505b836004600085815260200190815260200160002060006101000a81548173ffffffffffffffffffffffffffffffffffffffff021916908373ffffffffffffffffffffffffffffffffffffffff16021790555050505050565b600073ffffffffffffffffffffffffffffffffffffffff168273ffffffffffffffffffffffffffffffffffffffff1603611b425760006040517f64a0ae92000000000000000000000000000000000000000000000000000000008152600401611b399190612002565b60405180910390fd5b6000611b508383600061153b565b9050600073ffffffffffffffffffffffffffffffffffffffff168173ffffffffffffffffffffffffffffffffffffffff1614611bc45760006040517f73c6ac6e000000000000000000000000000000000000000000000000000000008152600401611bbb9190612002565b60405180910390fd5b505050565b600080600090507a184f03e93ff9f4daa797ed6e38ed64bf6a1f0100000000000000008310611c27577a184f03e93ff9f4daa797ed6e38ed64bf6a1f0100000000000000008381611c1d57611c1c612ad1565b5b0492506040810190505b6d04ee2d6d415b85acef81000000008310611c64576d04ee2d6d415b85acef81000000008381611c5a57611c59612ad1565b5b0492506020810190505b662386f26fc100008310611c9357662386f26fc100008381611c8957611c88612ad1565b5b0492506010810190505b6305f5e1008310611cbc576305f5e1008381611cb257611cb1612ad1565b5b0492506008810190505b6127108310611ce1576127108381611cd757611cd6612ad1565b5b0492506004810190505b60648310611d045760648381611cfa57611cf9612ad1565b5b0492506002810190505b600a8310611d13576001810190505b80915050919050565b60008073ffffffffffffffffffffffffffffffffffffffff168373ffffffffffffffffffffffffffffffffffffffff1614158015611dd457508273ffffffffffffffffffffffffffffffffffffffff168473ffffffffffffffffffffffffffffffffffffffff161480611d955750611d948484610d4d565b5b80611dd357508273ffffffffffffffffffffffffffffffffffffffff16611dbb83610fd1565b73ffffffffffffffffffffffffffffffffffffffff16145b5b90509392505050565b6000604051905090565b600080fd5b600080fd5b60007fffffffff0000000000000000000000000000000000000000000000000000000082169050919050565b611e2681611df1565b8114611e3157600080fd5b50565b600081359050611e4381611e1d565b92915050565b600060208284031215611e5f57611e5e611de7565b5b6000611e6d84828501611e34565b91505092915050565b60008115159050919050565b611e8b81611e76565b82525050565b6000602082019050611ea66000830184611e82565b92915050565b600081519050919050565b600082825260208201905092915050565b60005b83811015611ee6578082015181840152602081019050611ecb565b60008484015250505050565b6000601f19601f8301169050919050565b6000611f0e82611eac565b611f188185611eb7565b9350611f28818560208601611ec8565b611f3181611ef2565b840191505092915050565b60006020820190508181036000830152611f568184611f03565b905092915050565b6000819050919050565b611f7181611f5e565b8114611f7c57600080fd5b50565b600081359050611f8e81611f68565b92915050565b600060208284031215611faa57611fa9611de7565b5b6000611fb884828501611f7f565b91505092915050565b600073ffffffffffffffffffffffffffffffffffffffff82169050919050565b6000611fec82611fc1565b9050919050565b611ffc81611fe1565b82525050565b60006020820190506120176000830184611ff3565b92915050565b61202681611fe1565b811461203157600080fd5b50565b6000813590506120438161201d565b92915050565b600080604083850312156120605761205f611de7565b5b600061206e85828601612034565b925050602061207f85828601611f7f565b9150509250929050565b6000806000606084860312156120a2576120a1611de7565b5b60006120b086828701612034565b93505060206120c186828701612034565b92505060406120d286828701611f7f565b9150509250925092565b600080fd5b600080fd5b600080fd5b60008083601f840112612101576121006120dc565b5b8235905067ffffffffffffffff81111561211e5761211d6120e1565b5b60208301915083600182028301111561213a576121396120e6565b5b9250929050565b6000806020838503121561215857612157611de7565b5b600083013567ffffffffffffffff81111561217657612175611dec565b5b612182858286016120eb565b92509250509250929050565b61219781611f5e565b82525050565b60006020820190506121b2600083018461218e565b92915050565b6000602082840312156121ce576121cd611de7565b5b60006121dc84828501612034565b91505092915050565b6000806000604084860312156121fe576121fd611de7565b5b600061220c86828701611f7f565b935050602084013567ffffffffffffffff81111561222d5761222c611dec565b5b612239868287016120eb565b92509250509250925092565b61224e81611e76565b811461225957600080fd5b50565b60008135905061226b81612245565b92915050565b6000806040838503121561228857612287611de7565b5b600061229685828601612034565b92505060206122a78582860161225c565b9150509250929050565b600080fd5b7f4e487b7100000000000000000000000000000000000000000000000000000000600052604160045260246000fd5b6122ee82611ef2565b810181811067ffffffffffffffff8211171561230d5761230c6122b6565b5b80604052505050565b6000612320611ddd565b905061232c82826122e5565b919050565b600067ffffffffffffffff82111561234c5761234b6122b6565b5b61235582611ef2565b9050602081019050919050565b82818337600083830152505050565b600061238461237f84612331565b612316565b9050828152602081018484840111156123a05761239f6122b1565b5b6123ab848285612362565b509392505050565b600082601f8301126123c8576123c76120dc565b5b81356123d8848260208601612371565b91505092915050565b600080600080608085870312156123fb576123fa611de7565b5b600061240987828801612034565b945050602061241a87828801612034565b935050604061242b87828801611f7f565b925050606085013567ffffffffffffffff81111561244c5761244b611dec565b5b612458878288016123b3565b91505092959194509250565b6000806040838503121561247b5761247a611de7565b5b600061248985828601612034565b925050602061249a85828601612034565b9150509250929050565b7f4e487b7100000000000000000000000000000000000000000000000000000000600052602260045260246000fd5b600060028204905060018216806124eb57607f821691505b6020821081036124fe576124fd6124a4565b5b50919050565b7f4e6f6e207472616e7366657261626c6500000000000000000000000000000000600082015250565b600061253a601083611eb7565b915061254582612504565b602082019050919050565b600060208201905081810360008301526125698161252d565b9050919050565b7f4e6f7420796f75722070726f66696c6500000000000000000000000000000000600082015250565b60006125a6601083611eb7565b91506125b182612570565b602082019050919050565b600060208201905081810360008301526125d581612599565b9050919050565b7f416c7265616479206d696e746564000000000000000000000000000000000000600082015250565b6000612612600e83611eb7565b915061261d826125dc565b602082019050919050565b6000602082019050818103600083015261264181612605565b9050919050565b7f4e487b7100000000000000000000000000000000000000000000000000000000600052601160045260246000fd5b600061268282611f5e565b91507fffffffffffffffffffffffffffffffffffffffffffffffffffffffffffffffff82036126b4576126b3612648565b5b600182019050919050565b60006126cb8385611eb7565b93506126d8838584612362565b6126e183611ef2565b840190509392505050565b600060208201905081810360008301526127078184866126bf565b90509392505050565b600081905092915050565b600061272682611eac565b6127308185612710565b9350612740818560208601611ec8565b80840191505092915050565b6000612758828561271b565b9150612764828461271b565b91508190509392505050565b60008190508160005260206000209050919050565b60006020601f8301049050919050565b600082821b905092915050565b6000600883026127d27fffffffffffffffffffffffffffffffffffffffffffffffffffffffffffffffff82612795565b6127dc8683612795565b95508019841693508086168417925050509392505050565b6000819050919050565b600061281961281461280f84611f5e565b6127f4565b611f5e565b9050919050565b6000819050919050565b612833836127fe565b61284761283f82612820565b8484546127a2565b825550505050565b600090565b61285c61284f565b61286781848461282a565b505050565b5b8181101561288b57612880600082612854565b60018101905061286d565b5050565b601f8211156128d0576128a181612770565b6128aa84612785565b810160208510156128b9578190505b6128cd6128c585612785565b83018261286c565b50505b505050565b600082821c905092915050565b60006128f3600019846008026128d5565b1980831691505092915050565b600061290c83836128e2565b9150826002028217905092915050565b61292582611eac565b67ffffffffffffffff81111561293e5761293d6122b6565b5b61294882546124d3565b61295382828561288f565b600060209050601f8311600181146129865760008415612974578287015190505b61297e8582612900565b8655506129e6565b601f19841661299486612770565b60005b828110156129bc57848901518255600182019150602085019450602081019050612997565b868310156129d957848901516129d5601f8916826128e2565b8355505b6001600288020188555050505b505050505050565b600081519050919050565b600082825260208201905092915050565b6000612a15826129ee565b612a1f81856129f9565b9350612a2f818560208601611ec8565b612a3881611ef2565b840191505092915050565b6000608082019050612a586000830187611ff3565b612a656020830186611ff3565b612a72604083018561218e565b8181036060830152612a848184612a0a565b905095945050505050565b600081519050612a9e81611e1d565b92915050565b600060208284031215612aba57612ab9611de7565b5b6000612ac884828501612a8f565b91505092915050565b7f4e487b7100000000000000000000000000000000000000000000000000000000600052601260045260246000fd5b6000604082019050612b156000830185611ff3565b612b22602083018461218e565b939250505056fea26469706673582212209e35178975b3f2bcdd7fd5fe910282465ceb1597466b9a2235d8361f951d432164736f6c634300081c0033",
  "linkReferences": {},
  "deployedLinkReferences": {}
}